:020000040800F2
:1000000098080020A501000843260008EF210008F9
:100010004126000875070008513000080000000064
:10002000000000000000000000000000F1270008B0
:10003000990700080000000045260008F327000883
:10004000BF010008BF010008BF010008BF01000890
:10005000BF010008BF010008BF010008BF01000880
:10006000BF010008BF010008BF010008BF01000870
:10007000BF010008BF010008BF010008BF01000860
:10008000BF010008BF010008BF010008BF01000850
:10009000BF010008BF010008BF010008BF01000840
:1000A000BF010008BF010008BF010008BF01000830
:1000B000B52800080000000000000000BF01000893
:1000C000BF0100080000000000000000BF010008A0
:1000D00000000000BF010008BF0100080000000090
:1000E000BF010008BF010008000000000000000080
:1000F0000000000000000000000000000000000000
:10010000000000000000000000000000BF01000827
:100110000000000000000000BF010008BF0100084F
:10012000BF010008BF010008BF010008BF010008AF
:10013000BF010008000000000000000000000000F7
:10014000BF010008BF010008BF010008BF0100088F
:10015000BF010008BF010008BF010008BF0100087F
:10016000BF010008BF010008BF0100080000000037
:10017000BF010008BF0100080000000000000000EF
:10018000BF010008BF010008BF010008DFF810D060
:1001900000F0DEFA0048004779380008AFF300802D
:1001A000980800200648804706480047FEE7FEE71B
:1001B000FEE7FEE7FEE7FEE7FEE7FEE7FEE7FEE717
:1001C000712800088D0100082DE9F05F0546002028
:1001D00092469B4688460646814640241BE02846B8
:1001E00041464746224600F034FA53465A46C01A62
:1001F000914110D311461846224600F01BFA2D1AE1
:1002000067EB01084F4622460120002100F012FA58
:1002100017EB00094E41201EA4F10104DFDC484623
:1002200031462A46434600F000B830BCBDE8C09FC6
:10023000D2B201E000F8012B491EFBD27047002228
:10024000F6E710B513460A4604461946FFF7F0FFD5
:10025000204610BD421C10F8011B0029FBD1801A5A
:1002600070472DE9FE4F804681EA0300C00F0C461F
:10027000009021F0004123F00045B8EB0200A941B5
:1002800005D24046214690461C460B46024623F0C6
:100290000040104347D0270DC7F30A00C3F30A51AB
:1002A0000290401A019040286BDAC3F3130040F427
:1002B000801B0098924620B10023D2EB030A63EB27
:1002C0000B0B01985946C0F14002504600F0B2F9BC
:1002D00006460D4650465946019A00F0CAF910EB01
:1002E00008006141002487EA115284EAE7731A4347
:1002F00040D0009A62B3019A012A4FEA075215DCF6
:10030000001B61EB02014FF0004202EA0752CDE907
:100310000042001C41F5801132462B4600F0CAF91C
:1003200003B000F045B840462146F9E7001B61EBF9
:100330000201001C41F5801300185B412018A2F552
:10034000001747EB030140EAD570B6196D4111E083
:100350006D084FEA360645EAC0754FEA0752001BA2
:1003600061EB0201001C41F5801149084FEA3000A1
:100370000019514132462B4603B000F01CB800F082
:100380008AB90098012240000023D0EB020263EBFF
:10039000E073009821464FEAE074B8EB000061EB8F
:1003A0000401E9E783F000435BE781F0004158E78F
:1003B00030BCBDE8C08F30BCBDE8C04FFFF7DFBF29
:1003C0002DE9FE4F81EA030404F0004421F00041CE
:1003D00000944FF0000B23F0004350EA01045ED07C
:1003E00052EA03045BD0C3F30A54C1F30A552C4408
:1003F000A4F2F3340194A0FB0254C1F3130141F4BD
:100400008011C3F3130343F4801301FB024400FB88
:10041000034E840A970A44EA815447EA8357A4FBAF
:10042000076802958D0A05FB07854FEA932C04FBAC
:100430000C542705029D4FEA065847EA1637B5EBDC
:1004400008056EEB070C870E920E47EA811742EA09
:100450008312A7FB0201B6EB0B0164EB00042B0D2A
:1004600043EA0C335E1844EB1C50DA465146E7FB76
:100470000201C5F313044FEA0B3343EA14534FEA66
:100480000432019C43EA0603A4F10C040294009C8C
:10049000CDE900B400F00EF903B000F003B800207D
:1004A0000146F9E730BCBDE8C08F2DE9F04D81EA87
:1004B000030404F0004B21F0004514464FF0000AFD
:1004C00023F0004150EA050220D054EA01021DD079
:1004D000C5F30A570246C5F31303C1F31300C1F372
:1004E0000A5640F4801543F48013A7EB0608101B4E
:1004F000D64608F2FD3873EB050002D308F1010877
:1005000001E092185B41B8F1000F03DA00200146C8
:10051000BDE8F08D00204FF48011064684460EE0C1
:10052000171B73EB050705D3121B63EB050306438B
:100530004CEA010C49084FEA300092185B4150EA3E
:100540000107EDD152EA030012D082EA040083EAE7
:100550000501084305D0101BAB4106D20122002340
:1005600006E000224FF0004302E06FF0010253105A
:100570001AEB06004CEB085110EB0A0041EB0B01A3
:10058000BDE8F04D00F087B80EB5C10F80EAE0700D
:100590000844CA07002140F233438DE80E000A46A2
:1005A0000B4600F087F803B000BD0EB540F23341B2
:1005B00002910021CDE900110A460B4600F07AF8BD
:1005C00003B000BD70B5C1F30A5201F0004500242C
:1005D000C1F3130140F2FF3341F480119A4201DA72
:1005E000002070BD40F233439A42A2F2334203DC52
:1005F000524200F02EF800E090402C43F1D04042EF
:1006000070BD000030B5041E71F1000404DB4FF032
:100610000044404264EB0101141E73F1000405DB49
:100620001C464FF00043524263EB04038B4208BF69
:10063000824230BD202A04DB203A00FA02F1002079
:1006400070479140C2F1200320FA03F31943904010
:100650007047202A04DB203A21FA02F0002170477B
:1006600021FA02F3D040C2F120029140084319461A
:100670007047202A06DBCB17203A41FA02F043EA02
:10068000E07306E041FA02F3D040C2F1200291404B
:1006900008431946704710B5141E73F1000408DAB8
:1006A000401C41F1000192185B411A4301D120F036
:1006B000010010BD2DE9F04D92469B4611B1B1FAF3
:1006C00081F202E0B0FA80F220329046FFF7B2FFEA
:1006D00004460F4640EA0A0041EA0B0153465A46D7
:1006E000084313D0114653EA010019D0C8F1400263
:1006F0005046FFF7AEFF05460E4650465946424665
:10070000FFF798FF084305D0012004E02046394652
:10071000BDE8F08D0020054346EAE0762C433743E0
:100720000A986305E40AA0EB08000022FD0A44EAE7
:1007300047540A3002D500200146E9E701051019A7
:100740006941DDE9084500196941BDE8F04DA2E7BE
:10075000064C074D06E0E06840F0010394E807000E
:1007600098471034AC42F6D3FFF714FD643D0008FF
:10077000843D0008FEE700000548016841F08071F3
:1007800001600448016841F0010101607047000008
:10079000FCED00E0001000E07047000070B504467A
:1007A00000F0E4F80546601C02D0044800780444D8
:1007B00000F0DCF8401BA042FAD370BD70000020AE
:1007C0002DE9FC4FDFF880A1002301250AF1040B7D
:1007D00003244FF00F0C0BF1040EAEE005FA03F604
:1007E00032406FD04F68012F05D0022F03D0112F58
:1007F00001D0122F17D1D0F808905F0004FA07F843
:1008000029EA08090097D1F80C8008FA07F848EAA5
:100810000908C0F808804768B7430E79C6F3001688
:100820009E403E434660C6684FEA430804FA08F714
:10083000BE4301978F6807FA08F73743C7604E68D1
:10084000022E01D0122E13D1DE0800EB8606009690
:10085000366A5F07FF0E0CFA07F926EA0906D1F897
:10086000109009FA07F949EA0609009EC6F8209097
:100870000768019EB7430E7906F0030606FA08F6EC
:100880003E4306604E68F60056D5304E376E47F050
:1008900001073766366E23F0030706F0010600965F
:1008A0002B4E3E44B146B6689F074FEA17780CFAC4
:1008B00008F7BE43B0F1904F05D0264FB84204D19F
:1008C000012708E038E0002705E0234FB84201D1B6
:1008D000022700E0072707FA08F73743C9F808702E
:1008E000DAF800605746D1F8048096435FEAC838CA
:1008F00000D516433E60DBF800605F46D1F8048007
:1009000096435FEA883800D516433E60DEF8006003
:100910007746D1F8048096435FEAC82800D516438D
:100920003E60094F0C373E68D1F8048096435FEA79
:10093000882800D516433E605B1C0A6832FA03F62D
:100940007FF44CAF00F00AB80004014000100240F0
:100950000000014000040048000800481CBCBDE83D
:10096000E08F0069084000D001207047014880688E
:10097000704700007000002090F84120202A24D108
:1009800090F84020012A20D0012280F84020242223
:1009900080F841200268136823F0010313600268A5
:1009A000136823F480531360026813680B431360C9
:1009B00001680A6842F001020A60202180F84110B3
:1009C000002180F84010084670470220704790F8D8
:1009D0004120202A22D190F84020012A1ED0012255
:1009E00080F84020242280F841200268136823F018
:1009F000010313600268136823F4706343EA012162
:100A0000116001680A6842F001020A60202180F842
:100A10004110002180F840100846704702207047BE
:100A200070B5040004D094F84100002510B106E030
:100A3000012070BD84F84050204600F0E3F82420E7
:100A400084F841002068016821F0010101606068BC
:100A5000216820F0706008612068816821F40041FD
:100A60008160E0680128A06807D040F40440216854
:100A70008860E068022803D006E040F40040F6E712
:100A800021684FF40060486020684168114A1143B2
:100A900041602068C16821F40041C160D4E90401CB
:100AA0000843A16940EA01202168C860D4E9070130
:100AB0000843216808602068016841F00101016075
:100AC0006564202084F84100256384F842500020AA
:100AD00070BD0000008000022DE9F84F044690F838
:100AE0004100DDF828A01F4690468B4620287ED185
:100AF00094F8400001287AD0012084F84000FFF7E4
:100B000035FF0646012200901923D103204601F04B
:100B1000D9FBE0BB212084F84100102084F842007A
:100B200000256564C4F8248067856563618D31485C
:100B3000FF274FF080784FF00079FF2903D92785F0
:100B40003A46009039E0618D218500903AE059469F
:100B5000204601F0A1FB13E001F006FCB8B9606A81
:100B6000216800788862606A401C6062608D401E67
:100B70006085208D401E80B22085618D01B168B1F5
:100B8000608D3246002851462046E5D100E002E063
:100B900001F0C4FBD0B1012000F030B85346002270
:100BA00080212046009601F08DFB0028F3D1608D56
:100BB000FF2804D927853A4600954346C7E7608D4C
:100BC0002085009594F828204B46C0E72168202016
:100BD000C86121684A68084B1A404A6084F841009D
:100BE00084F8425084F840500020D5E7FFE7022007
:100BF000D2E700000020008000E800FE18BCBDE83D
:100C0000E08F000010B586B0044614216846FFF757
:100C100016FB1249206888421ED1114CE06C40F04E
:100C20000200E064E06C694600F002000590C0201C
:100C300000901220019001200290032003900420D4
:100C400004900848FFF7BCFDA06D40F40010A065BB
:100C5000A06D00F40010059006B010BD00540040D7
:100C600000100240000400480248816802781144E4
:100C7000816070477000002010B50024032000F050
:100C800071F8002000F008F808B1012401E000F03C
:100C900025F8204610BD000070B50E4E0546002414
:100CA000307898B14FF47A71B1FBF0F00A490968D5
:100CB000B1FBF0F000F0A6FD40B9102D06D20022E5
:100CC0002946501E00F02EF8756000E001242046F1
:100CD00070BD0000700000207C000020094808B5AD
:100CE000016E41F001010166016E01F00101009108
:100CF000816D41F080518165806D00F080500090E1
:100D000008BD000000100240002809DB00F01F02AF
:100D1000012191404009800000F1E020C0F800115D
:100D200070470000F0B40E4B1B680C46C3F302235F
:100D3000C3F10705042D00D90425191D072901D287
:100D4000002300E0DB1E012606FA05F1491E2140C2
:100D500099409E40761E16403143F0BC02F0A8B97F
:100D60000CED00E0064900F0070208684FF6FF03AB
:100D7000184040EA0220034A104308607047000010
:100D80000CED00E00000FA051649B0F5007F086898
:100D9000C0F3412009D0022805D0086820F4C060C3
:100DA00040F480600860002070470128FBD008688C
:100DB00020F4C06040F4007008600B4832220068E4
:100DC00050430A4AB0FBF2F0401C00E0401E4A6962
:100DD000520501D50028F9D148694005E3D5032023
:100DE00070470000007000407C00002040420F006F
:100DF0000248006800F4C0607047000000700040C6
:100E00002DE9F84F0446002700889C4D3E4600051A
:100E100015D5E06B60B1B0F5000F04D0B0F5400F10
:100E20002BD001270AE0E86840F48030E86024E035
:100E30000021201D01F008FC07001ED03E4620685E
:100E4000800338D5A86D4FF00008C00009D4A86D04
:100E500040F08050A865A86D4FF0010800F0805068
:100E60000090DFF81CA2DAF8001041F48071CAF893
:100E70000010FFF77BFD814610E0D5F88800E16B9C
:100E800020F440000843C5F88800D8E7FFF76EFD5E
:100E9000A0EB0900022801D9032704E0DAF80000DA
:100EA000C005F3D5EFB33E46B8F1000F03D0A86DEF
:100EB00020F08050A8652078C00707D0D5F88800BA
:100EC000216A20F003000843C5F8880020788007D5
:100ED00007D5D5F88800616A20F00C000843C5F8F2
:100EE00088002078800607D5D5F88800A16A20F40C
:100EF00040600843C5F888002088800507D5D5F8EC
:100F00008800616B20F440200843C5F888002088E1
:100F1000400509D5D5F88800A16B20F4401008439E
:100F200000E02EE0C5F888002078400607D5D5F807
:100F30008800E16A20F440500843C5F88800208802
:100F4000C00507D5D5F88800216B20F44030084350
:100F5000C5F8880020884FF0006780044FF0806853
:100F60004ED5D5F88800216C20F040600843C5F8C4
:100F70008800206CB8423BD1E86840F48010E860FB
:100F80003EE0D5F8900010F4407014D0216D8142FD
:100F900011D0D5F89000D5F8901020F4407041F4AD
:100FA0008031C5F89010D5F8901021F48031C5F843
:100FB0009010C5F89000C00711D0FFF7D7FC074686
:100FC00041F2883907E000BFFFF7D0FCC11B49455B
:100FD00001D9032668E7D5F890008007F4D5D5F845
:100FE0009000216D20F440700843C5F890005BE745
:100FF000404505D10121201D01F026FB00B1064628
:101000002068400317D5D5F88800616C20F0406057
:101010000843C5F88800606CB84204D1E86840F421
:101020008010E86007E0404505D10121201D01F056
:101030000BFB00B106462088400411D5D5F8880086
:10104000A16C20F040500843C5F88800A06CB0F1B6
:10105000805F05D10221201D01F0F6FA00B106469D
:101060002088000406D555F8880FE16C20F08040F8
:1010700008432860304600F005B800000010024028
:101080000070004018BCBDE8E08F00002DE9F0477B
:101090000F46050058D0404E306800F00700B842B7
:1010A00009D2306820F0070038433060306800F023
:1010B0000700B84248D12878384CC0072CD068685F
:1010C000032811D0022812D0216898B149050029BF
:1010D0003ADAA16821F003010143A160FFF746FC61
:1010E000804641F2883910E021688901EFE72168E4
:1010F0008903ECE78907EAE7FFF738FCA0EB080172
:10110000494502D90320BDE8F087A068696800F06E
:101110000C00B0EB810FEFD12878800705D5A068CF
:10112000A96820F0F0000843A060306800F00700D4
:10113000B8420BD9306820F007003843306030687F
:1011400000F00700B84201D00120DCE72878400712
:1011500005D5A068E96820F4E0600843A06028781D
:10116000000706D5A068296920F4605040EAC10054
:10117000A06000F03FF8A168094AC1F30311515C77
:1011800001F01F01C8400749086007480068BDE832
:10119000F047FFF781BD0000002002400010024030
:1011A000903C00087C00002074000020054806499F
:1011B00000688968054AC1F30221515C01F01F01F2
:1011C000C84070477C00002000100240D03C00085E
:1011D0000548064900688968054AC1F3C221515C87
:1011E00001F01F01C84070477C0000200010024041
:1011F000D03C000870B52549002318468A68CC68A1
:1012000012F00C0204F00306214C4FEA640509D0E9
:101210000C2A05D0042A32D0082A00D1284670BDF5
:10122000012E10D10B681B0704D4D1F89430C3F3FE
:10123000032302E00B68C3F30313164E56F8233062
:10124000DAB10C2AEBD1C86800F00300022818D0EC
:10125000032818D01846CA68CB68C2F30212C3F339
:1012600006234343521CB3FBF2F2C868C0F341604B
:10127000401C4000B2FBF0F070BD184670BD204627
:1012800070BD2046E7E72846E5E700000010024071
:101290000024F400A03C00082DE9F84304006FD0BE
:1012A000FE4DA86800F00C06E86800F003072078FF
:1012B000C00664D576B10C2E01D1012F0AD0A069E9
:1012C000002828687AD040F001002860FFF74EFB24
:1012D00080465DE02868800702D5A0690028DED03E
:1012E000216A2868000703D5286800F0F00004E0B0
:1012F000D5F89400F02202EA1010814216D908466F
:1013000001F038FA00283BD1286840F00800286036
:101310002868216A20F0F000084328606868E169C5
:1013200020F47F4040EA0120686016E0286840F021
:10133000080028602868216A20F0F000084328602F
:101340006868E16920F47F4040EA0120686026B9BE
:10135000206A01F00FFA0028D5D1FFF74BFFA968EA
:10136000CF4AC1F30311515C01F01F01C840CD49C0
:101370000860CD480068FFF78FFC00287ED12EE082
:10138000CAE000BFFFF7F2FAA0EB0800022876D807
:1013900028688007F6D5286840F00800286028688B
:1013A000216A20F0F000084328606868E16920F4B1
:1013B0007F4040EA0120686011E0FFE720F0010073
:1013C0002860FFF7D3FA804606E000BFFFF7CEFAA9
:1013D000A0EB08000228DAD828688007F6D4207825
:1013E000C00740D0082E18D00C2E01D1032F14D0E6
:1013F0006068B0F5803F17D0B0F5A02F286817D0EF
:1014000020F480302860286820F4802028606068FC
:10141000E0B1FFF7ABFA804614E02868800322D5DC
:101420006068002878D01EE0286840F48030EDE73E
:1014300040F480202860F7E7FFF798FAA0EB080057
:101440006428A4D828688003F6D50CE0FFF78EFA4C
:10145000804605E0FFF78AFAA0EB0800642896D8DA
:1014600028688003F6D4207880073BD5042E11D05D
:101470000C2E01D1022F0DD0E06801E0B6E1FFE0B3
:10148000002828681ED040F480702860FFF76EFAAC
:1014900007460CE0286840050CD5E0680028C1D05C
:1014A00008E000BFFFF762FAC01B022893D8286843
:1014B0004005F7D56868217C20F0FE4040EA0160D5
:1014C00068600FE020F480702860FFF74FFA07464D
:1014D00005E000BFFFF74AFAC01B0228B1D8286810
:1014E0004005F7D42078000729D560690028D5F891
:1014F000940012D040F00100C5F89400FFF736FACE
:10150000074604E0FFF732FAC01B022899D8D5F845
:1015100094008007F6D512E02BE120F00100C5F819
:101520009400FFF723FA074605E000BFFFF71EFA15
:10153000C01B022885D8D5F894008007F6D42078FF
:10154000400766D5A86D0027C00008D4A86D40F0FC
:101550008050A865A86D012700F080500090534886
:101560000168C90512D40168814641F480710160A7
:10157000FFF7FCF9804605E0FFF7F8F9A0EB08005B
:1015800002287DD8D9F80000C005F5D5A06801284B
:1015900016D00528D5F8900017D020F00100C5F826
:1015A0009000D5F8900020F0040000BFC5F890002E
:1015B000A06841F28839C0B1FFF7D8F980460FE042
:1015C000D5F8900040F00100F0E740F00400C5F8C5
:1015D0009000F5E7FFF7CAF9A0EB080149454FD89D
:1015E000D5F890008007F5D50EE0FFF7BFF98046EB
:1015F00006E000BFFFF7BAF9A0EB080149453FD864
:10160000D5F890008007F5D41FB1A86D20F0805068
:10161000A8652078800628D5606A0028D5F898004B
:1016200012D040F00100C5F89800FFF79FF9074677
:1016300005E000BFFFF79AF9C01B022820D8D5F8B3
:1016400098008007F6D510E020F00100C5F898005A
:10165000FFF78CF9074604E0FFF788F9C01B022862
:101660000ED8D5F898008007F6D4A06AA8B1022851
:1016700024D00C2E7DD0286820F08070286000E0F7
:10168000B3E02868000103D4E86820F00300E860B4
:10169000E86807490840E8600CE09FE0001002405D
:1016A000903C00087C000020740000200070004086
:1016B000FFFFEEFEFFF75AF9044699E0E868E26A98
:1016C00000F00301914226D1216B00F07002090164
:1016D000103991421FD1626B00F4FE41B1EB022F31
:1016E00019D194F8382000F07841B1EBC26F12D1D3
:1016F000A18F00F4C00249084905A1F500119142EB
:1017000009D194F8401000F0C06049084906A1F1E1
:10171000007181424BD00C2E6FD0286840016CD4F0
:10172000286820F080702860FFF720F9064604E062
:10173000FFF71CF9801B022857D828688001F7D4CE
:10174000F4E90B016FF00F0202EB01110843218A4B
:101750005204490802EB4151A26841EA02210843C0
:10176000217D4FF07E42490802EB41610843217B15
:1017700000E042E040EAC160E968214A11400843C4
:10178000E860286840F080702860E86840F0807069
:10179000E860FFF7EBF8044605E000BFFFF7E6F866
:1017A000001B022821D828688001F7D523E028688B
:1017B000800120D4286840F080702860E86840F0FC
:1017C0008070E860FFF7D2F8044604E0FFF7CEF837
:1017D000001B022809D828688001F7D50BE000BF5C
:1017E000FFF7C4F8001B022802D90320BDE8F883E4
:1017F00028688001F4D40020F8E70120F6E7000013
:101800008C809D0110B5401EB0F1807F01D3012076
:1018100010BD4FF0E02460610F21601701F048FC1B
:101820000020A06107202061002010BD7047704794
:1018300070470000F0B590F83C20012A29D001241F
:1018400080F83C40022280F83D2003685A689D6879
:10185000114EB34203D122F470074A683A4322F092
:1018600070070A683A435A600268B24205D0B2F182
:10187000804F02D0094B9A4204D1896825F0800339
:101880001943916080F83D40002180F83C100846E3
:10189000F0BD0220F0BD0000002C014000400140DE
:1018A00010B50446022084F83D002068016A41F228
:1018B0001112114207D1016A9210114203D101683D
:1018C00021F001010160204600F04DF8002084F86D
:1018D000480084F83E0084F83F0084F8400084F813
:1018E000410084F8420084F8430084F8440084F8FE
:1018F000450084F8460084F8470084F83D0084F8E9
:101900003C0010BD10B5040003D094F83D0010B1A8
:1019100007E0012010BD002084F83C00204600F0C4
:1019200023F8022084F83D00211D206800F0C8FF44
:10193000012084F8480084F83E0084F83F0084F8D1
:10194000400084F8410084F8420084F8430084F8A1
:10195000440084F8450084F8460084F8470084F881
:101960003D00002010BD70477047000090F83D100A
:10197000012901D001207047022180F83D10016843
:10198000CA6842F00102CA6000680B49884205D06B
:10199000B0F1804F02D00949884207D18168084AD6
:1019A0001140062906D0B1F5803F03D0016841F00F
:1019B0000101016000207047002C014000400140FF
:1019C0000700010070B5044690F83C00012817D0CC
:1019D000012584F83C50022084F83D00226890687C
:1019E0002E4B184020F47F4090600868502830D07B
:1019F0000DDC20284DD005DC98B310283BD148E001
:101A0000022070BD302844D0402834D139E060280D
:101A100028D0702806D0B0F5805F2CD0B0F5005FDC
:101A200029D10AE0CB68D1E90121206800F08BFFC1
:101A30002068816841F0770109E0CB68D1E9012194
:101A4000206800F080FF2068816841F48041816057
:101A500011E0CA684968206801F0C6F85021206882
:101A600007E016E0CA684968206801F0CEF86021F6
:101A7000206800F072FF84F83D50002084F83C009C
:101A800070BDCA684968206801F0AEF8402120683E
:101A9000EFE7226801461046EBE7000088FFFEFFF3
:101AA000704770B50446006801694FF00005C943EE
:101AB000890715D4C168C943890711D4E91E01619A
:101AC00001202077206880698007204602D0FFF738
:101AD000E7FF04E000F0CEF8204600F0A9F92577F2
:101AE00020680169C943490717D4C168C943490738
:101AF00013D46FF00401016102202077206880690F
:101B000010F4407F204602D0FFF7CAFF04E000F047
:101B1000B1F8204600F08CF9257720680169C943A7
:101B2000090716D4C168C943090712D46FF0080128
:101B30000161042020772068C0698007204602D018
:101B4000FFF7AEFF04E000F095F8204600F070F9D2
:101B5000257720680169C943C90617D4C168C943FC
:101B6000C90613D46FF010010161082020772068A6
:101B7000C06910F4407F204602D0FFF791FF04E0D7
:101B800000F078F8204600F053F9257720680169C5
:101B9000C943C90708D1C168C943C90704D1891E0F
:101BA0000161204600F0FAF920680169C94309067D
:101BB00009D4C168C943090605D46FF080010161E9
:101BC0002046FFF734FE20680169C943C90509D4DE
:101BD000C168C943090605D46FF4807101612046CC
:101BE000FFF724FE20680169C943490609D4C1688A
:101BF000C943490605D46FF040010161204600F059
:101C00001FFA20680169C94389060BD4C168C9431A
:101C1000890607D46FF0200101612046BDE87040BD
:101C2000FFF706BE70BD000010B586B00446142153
:101C30006846FEF704FB2068B0F1804F15D10C48D0
:101C4000C16C41F00101C164C06C022100F00100CF
:101C500005900120CDE9000100210291CDE903109A
:101C600069464FF09040FEF7ABFD06B010BD000096
:101C700000100240704770B5044690F83C000D46D5
:101C800001280BD0012084F83C000C2A45D007DC49
:101C90005AB1042A1BD0082A78D12CE0022070BD4A
:101CA000102A4ED0142A71D15DE0206800F05EFE4B
:101CB0002068816941F0080181612068816921F013
:101CC00004018161206881692A69114311E020685B
:101CD00000F088FE2068816941F40061816120681C
:101CE000816921F480618161206881692A6941EA02
:101CF000022181614AE0206800F0B0FE2068C169DD
:101D000041F00801C1612068C16921F00401C1618D
:101D10002068C1692A69114311E0206800F0D8FEEB
:101D20002068C16941F40061C1612068C16921F482
:101D30008061C1612068C1692A6941EA0221C161EB
:101D400024E0206800F0F4FE2068416D41F00801B5
:101D500041652068416D21F0040141652068416DB5
:101D60002A69114311E0206800F010FF2068416DDE
:101D700041F4006141652068416D21F48061416555
:101D80002068416D2A6941EA02214165002084F8FA
:101D90003C0070BD10B5040003D094F83D0010B1B4
:101DA00007E0012010BD002084F83C00204600F030
:101DB00023F8022084F83D00211D206800F080FDFA
:101DC000012084F8480084F83E0084F83F0084F83D
:101DD000400084F8410084F8420084F8430084F80D
:101DE000440084F8450084F8460084F8470084F8ED
:101DF0003D00002010BD000008B50068B0F1804F24
:101E000012D10A48816D41F001018165806D002287
:101E100000F00100009011461C20FEF783FFBDE892
:101E200008401C20FEF770BF08BD000000100240F3
:101E30007047000010B50446022269B1042912D08F
:101E4000082917D00C291CD0102921D094F8430060
:101E5000012824D0012010BD94F83E000128F9D1BA
:101E600084F83E201DE094F83F000128F2D184F868
:101E70003F2016E094F840000128EBD184F8402080
:101E80000FE094F841000128E4D184F8412008E0F3
:101E900094F842000128DDD184F8422001E084F862
:101EA00043200122206800F041FD12492068124AB7
:101EB000884204D0904202D0104B984203D1436C28
:101EC00043F4004343642068884204D0B0F1804F5B
:101ED00001D0904207D18168094A1140062906D0F5
:101EE000B1F5803F03D0016841F00101016000209D
:101EF00010BD0000002C01400040014000440140A2
:101F00000700010030B504460D460068002200F0CD
:101F10000DFD1F4B41F2111220689110984205D01F
:101F20001C4B984202D01C4B984209D1036A1342C1
:101F300006D1036A0B4203D1436C23F4004343648C
:101F40002068036A134206D1026A0A4203D101687B
:101F500021F00101016001205DB1042D0CD0082D9C
:101F60000DD00C2D0ED0102D0FD084F84300002082
:101F700030BD84F83E00FAE784F83F00F7E784F8C4
:101F80004000F4E784F84100F1E784F84200EEE70E
:101F9000002C0140004001400044014070B525493B
:101FA00088422DD120212448FEF7DBFC23494A88B2
:101FB000521C4A804A78FF2A01D906220A700D78FD
:101FC000002203230524AD1E052D19D2DFE805F0FC
:101FD000030C19292D00002812D14888642822D327
:101FE00081F804224A7012E0012809D14B88487810
:101FF00001EB4004401C4870A3804A800420087014
:1020000070BD20B148886428FAD90C7070BD4C8826
:10201000487801EB4005401C4870AC804A800B704A
:1020200070BD0028FCD14A8070BD012081F80402F7
:10203000EBE700002C010020000400488C02002087
:10204000704710B5040002D0606F10B107E00120A6
:1020500010BD002084F87000204600F025F82420F0
:1020600060672068016821F001010160204600F0EE
:102070006FFE0128ECD0606A10B1204600F0D7FD59
:102080002068416821F4904141602068816821F016
:102090002A0181602068016841F001010160204649
:1020A000BDE8104000F027BEF0B587B0044614210B
:1020B0006846FEF7C4F81D4F266800221C4902231B
:1020C000032407254FF09040BE4211D10E6E46F416
:1020D00080460E660E6E06F480460596CE6C46F07F
:1020E0000106CE64C96C01F001010591610213E0A3
:1020F000104FBE4218D18E6D46F400368E658E6D3F
:1021000006F400360596CE6C46F00106CE64C96C26
:1021100001F0010105910C21CDE9001302AE6946E1
:1021200086E83400FEF74CFB07B0F0BD00380140F4
:1021300000100240004400402DE9F8430446406F7F
:102140001F4616460D4620284FD1CDB1C6B194F892
:102150007000012849D0012084F870004FF0000879
:10216000C4F87C8021206067FEF700FCA4F8506072
:102170008146A4F85260A068B0F5805F03D004E007
:102180000120BDE8F883206928B12E465FF00005E4
:1021900084F8708010E00026FAE78021204600F0E5
:1021A000C9FEB8B9C6B116F8010B21680885B4F8A4
:1021B0005200401EA4F85200B4F852004B464FF0B3
:1021C000000200970028E8D14FF04001204600F0BF
:1021D000B1FE30B10320D4E735F8020BC0F308009C
:1021E000E3E7202060670020CBE70220C9E7FEE795
:1021F00001688A69D243920701D400228A6200688A
:102200008169C943C90703D0816941F00101816136
:10221000704700002DE9F0410446006890460E46E4
:102220008069C043C00633D4002520272068806918
:10223000C043800615D5701CF8D0FEF797FBA0EBC5
:102240000800B04201D8002EF0D154F8440F40F0FD
:10225000200044F804096770A57025700120BDE8CE
:10226000F08121681020C8612068C7612046FFF70F
:10227000BFFF54F8440B4168064A11404160206892
:1022800040F0040044F820096777A5772577E5E753
:102290000020E4E700E800FEF0B50568059C6868EA
:1022A0004FF48066064FC1F3090106EA545641EA2D
:1022B00002413E431943B043214308436860F0BDE7
:1022C000FF63FF032DE9F0411D4617460E46044605
:1022D000DDF8188008E0681C06D0FEF747FBA0EB8D
:1022E0000800A8420BD855B12068806936EA000082
:1022F00012D00020B842EED00020BDE8F08154F8A2
:10230000440F40F0200044F80409202060700020B1
:10231000A07020700120F0E70120EBE770B51646B1
:102320000D4604460DE0324629462046FFF772FF6F
:1023300008B1012070BDFEF719FB801BA84207D829
:1023400035B120688069C0438006ECD4002070BDA0
:1023500054F8440F40F0200044F804092020607035
:102360000020A0702070E4E770B516460D460446C4
:102370000FE0324629462046FFF74CFF08B1012006
:1023800070BD681C05D0FEF7F1FA801BA84207D883
:1023900035B120688069C0438007EAD4002070BD51
:1023A00054F8440F40F0200044F8040920206070E5
:1023B0000020A0702070E2E770B505462DED028B7D
:1023C00001F16400FEF7E0F80E4646EC100B9FEDBD
:1023D000181B044653EC112B51EC100BFDF7F0FFCA
:1023E0009FED158B53EC182BFEF75FF8FEF7EAF81C
:1023F000A8421BDC46EC104B9FED111B51EC100B5F
:1024000053EC112BFDF7DCFF53EC182BFEF74DF8C6
:102410009FED0D1B53EC112BFDF723FFFEF7D2F8B8
:10242000A84203DB0120BDEC028B70BD0020FAE75F
:10243000000000000000E83F0000000000004940EC
:10244000000000000000F43F000000000000F03F2A
:1024500070B505462DED028BA1F16400FEF794F8EE
:102460000E4646EC100B9FED181B044653EC112B47
:1024700051EC100BFDF7A4FF9FED158B53EC182BBF
:10248000FEF713F8FEF79EF8A8421BDC46EC104B53
:102490009FED111B51EC100B53EC112BFDF790FF2E
:1024A00053EC182BFEF701F89FED0D1B53EC112B8D
:1024B000FDF7D7FEFEF786F8A84203DB0120BDEC4E
:1024C000028B70BD0020FAE7000000000000E83F2A
:1024D0000000000000004940000000000000F43F40
:1024E000000000000000F03F10B586B014216846DF
:1024F000FDF7A5FE1248C16C41F00101C164C16C39
:1025000001F001010591C16C41F00201C164C06C90
:10251000002400F0020005900220CDE900040290A2
:1025200069464FF09040FEF74BF92020CDE90004BA
:10253000694604480294FEF743F906B010BD000056
:1025400000100240000400480E4810B50C4901601C
:102550000D49416000210122C0E90212016141617F
:102560008161C1610162FEF75BFA00210548FEF757
:1025700003FABDE8104000210248FEF728BA000027
:1025800000540040E0000020D38D801010B58AB0C8
:102590000024079408941C2168460994FDF74FFE17
:1025A00010484FF08041C0E90014611EC0E90241AB
:1025B00004618461FFF7EEFB079407A909480994B9
:1025C000FFF738F96020CDE9000402940022694643
:1025D00004480494FFF74FFB0248FFF725FB0AB0BD
:1025E00010BD00002C0100200948084901604FF48B
:1025F00016514160002181600C22C160C0E90412C3
:102600008161C16101624162FFF71BBD0038014079
:10261000780100200948084901604FF4E131416028
:10262000002181600C22C160C0E904128161C16196
:1026300001624162FFF705BD00440040F80100203F
:10264000FEE77047704700002DE9F041444C054615
:102650008846E0680026810728680DD0E16801F00F
:102660000301814216D1A8B1E0686968C0F3021085
:10267000401C88420ED120E0012804D0022805D059
:10268000032807D108E02168890701E0216849058E
:10269000002907DB01265FE02168890302D4216855
:1026A0004903F5E7E1686A686FF00F0321F07301F1
:1026B00003EB021211430143E160206820F08060C7
:1026C0002060FEF753F9074605E000BFFEF74EF91C
:1026D000C01B022837D820680001F7D4B8F1000FDA
:1026E00018D0B8F1010F1DD0287D4FF07E41400871
:1026F00001EB4060A96840EA01202169194A1140B4
:1027000008432061206840F080602060FEF72EF9C9
:1027100007461AE0A868297B000240EAC1602169E7
:10272000114AECE7288A1149400801EB4050A9689A
:1027300040EA012021690E4AE1E700BFFEF716F9E1
:10274000C01B022801D9032606E020680001F5D548
:102750002069A969084320613046BDE8F081000086
:1027600000100240FF80FFF9FF80FF070000E0FF3C
:10277000FF809FFFF8B51C4D06460024A86DC000E1
:1027800002D5FEF735FB0DE0A86D40F08050A8653E
:10279000A86D00F080500090FEF72AFBA96D21F093
:1027A0008051A965B0F5007F04D0802E07D94FF085
:1027B00003040AE0802E08D9A02E01D804E001D13C
:1027C000022402E0702E00D101240848016821F0A3
:1027D000070121430160006800F00700A04201D01A
:1027E0000120F8BD0020F8BD00100240002002408A
:1027F0007047FEF739BA10B5ACB044216846FDF712
:102800001EFD142126A8FDF71AFD542111A8FDF77D
:1028100016FD102000900120002460210690CDE9D3
:1028200007410221CDE90A100C9024200D900720C9
:10283000CDE90E0168461091FEF72EFD0F2026907F
:102840000320CDE927042994042126A82A94FEF721
:102850001DFC4320119019941A941C9411A8FEF7A2
:10286000CFFA4FF40070FEF78FFA2CB010BD0000C5
:102870000D48016841F4700101600C48016841F0A5
:1028800001010160002181600268094B1A40026069
:102890008214C260026822F48022026081610249CF
:1028A000C00380390860704788ED00E000100240E6
:1028B000FFFFF6EA0148FFF7F4B800002C01002002
:1028C00070B50268164B4FF08046984201D0B04276
:1028D00003D122F070044A682243124C124D9842F0
:1028E00005D0B04203D0A04201D0A84203D122F4C7
:1028F0004076CA6832434E6922F080023243026059
:102900008A68C2620A688262984203D0A04201D0FB
:10291000A84201D1096901630121416170BD000034
:10292000002C0140004001400044014010B501F07E
:102930001F030121046A99408C430462016A9A4092
:102940001143016210BD10B5846842EA032224F4E9
:102950007F440A432243826010BD826822F07002E5
:102960000A4342F00701816070470000F0B5026A37
:1029700022F001020262056A43688269154C25F063
:10298000020522400C6822F0030214438A68134EA9
:102990002A43114D124FA84203D0B04201D0B84291
:1029A00006D122F0080CCA6842EA0C0222F00402A6
:1029B000A84203D0B04201D0B84205D14D6923F4FA
:1029C00040731D438B692B434360846149684163B5
:1029D0000262F0BD8FFFFEFF002C0140004001406D
:1029E0000044014030B5026A22F010020262046A1B
:1029F00042688369154D2B400D6823F4407343EA08
:102A0000052524F020038C6843EA0413104CA042EF
:102A100007D1CC6823F0800343EA041323F040037A
:102A200005E00C4CA04202D00B4CA04207D14C69EF
:102A300022F4406242EA84028C6942EA84024260E3
:102A4000856149688163036230BD0000FF8FFFFE2E
:102A5000002C0140004001400044014030B5026AB2
:102A600022F480720262046A4268C369144D2B40EA
:102A70000D6823F003031D4324F400738C6843EABC
:102A80000423104CA04207D1CC6823F4006343EA2E
:102A9000042323F4806305E00B4CA04202D00B4CCE
:102AA000A04207D14C6922F4405242EA04128C69D8
:102AB00042EA04124260C5614968C163036230BDE5
:102AC0008FFFFEFF002C0140004001400044014008
:102AD00030B5026A22F480520262046A4268C36915
:102AE0000F4D24F400542B400D6823F4407343EA47
:102AF00005238D6844EA05340A4DA84205D00A4DE5
:102B0000A84202D0094DA84204D14D6922F4804266
:102B100042EA85124260C36149680164046230BDC3
:102B2000FF8FFFFE002C01400040014000440140A7
:102B300030B5026A22F480320262046A4268436D50
:102B40000E4D2B400D681D4324F400330C8943EADD
:102B500004430B4CA04205D00A4CA04202D00A4CC0
:102B6000A04204D14C6922F4803242EA042242603D
:102B7000456549688165036230BD00008FFFFEFF37
:102B8000002C0140004001400044014030B5026A81
:102B900022F480120262046A4268436D0E4D24F4EE
:102BA00000142B400D6843EA05230D8944EA0554BF
:102BB0000A4DA84205D00A4DA84202D0094DA842AC
:102BC00004D14D6922F4802242EA852242604365A5
:102BD0004968C165046230BDFF8FFFFE002C0140D3
:102BE000004001400044014010B5036A046A24F02B
:102BF00001040462846924F0F00444EA021423F01E
:102C00000A020A438461026210BD10B5036A23F010
:102C1000100303628369046A23F4704343EA0232B7
:102C200024F0A00343EA01118261016210BD90F813
:102C30002410C90706D001684A68836A22F400326A
:102C40001A434A6090F82410890706D501684A683B
:102C5000C36A22F480321A434A6090F8241049076C
:102C600006D501684A68036B22F480221A434A6041
:102C700090F82410090706D501684A68436B22F4CE
:102C800000421A434A6090F82410C90606D501682C
:102C90008A68836B22F480521A438A6090F8241069
:102CA000890606D501688A68C36B22F400521A436C
:102CB0008A6090F82410490611D501684A68036CAF
:102CC00022F480121A434A60016CB1F5801F06D1CC
:102CD00001684A68436C22F4C0021A434A6090F8C3
:102CE0002410090606D501684A68806C22F4002287
:102CF00002434A607047F8B500260446C667FDF7F0
:102D000035FE0546206800686FF07E47000708D54D
:102D10002B4600224FF400112046009700F00AF9DC
:102D200060B92068006840070AD52B4600224FF49E
:102D300080012046009700F0FDF808B10320F8BD9F
:102D400020206067A06784F870600020F8BD000054
:102D50002DE9F0410446016880682269E369104367
:102D6000626900251A4310436B4F0A686B4B1A4087
:102D700002430A6020684168E26821F4405111432F
:102D800041602168A069B94201D0226A10438A6873
:102D900022F4306202438A606149236861488B42B1
:102DA0000DD1D0F8880010F0030006D0012838D0EB
:102DB000022834D0032821D135E001211FE05A49EF
:102DC0008B420BD1D0F8880010F00C0025D00428DD
:102DD00027D0082823D00C2810D124E0BB420DD1E5
:102DE000D0F8880010F4406017D0B0F5806F18D08C
:102DF000B0F5006F13D0B0F5406F14D010214B48E0
:102E000000264FF40042BB422FD171B1022912D0EB
:102E100004290DD0082973D125E00021EFE7022114
:102E2000EDE70421EBE70821E9E7FEF7BFF901E050
:102E3000FEF7E0F9F0B3626802EB420181425FD82D
:102E4000B0EB023F5CD8010E000273084FEA320774
:102E5000C01959410023FDF7B7F9354AA0F5407173
:102E6000914251D94CE01046E5E7E3694FF6EF7720
:102E7000934229D1092943D2DFE801F005080E4227
:102E80000B4242422400FEF791F904E0FEF7A0F95C
:102E900001E0FEF7AFF968B14100606801EB500155
:102EA000B1FBF0F080B2A0F11001B94228D84FF682
:102EB000F07100E02AE00140C0F3420001432068C5
:102EC000C16023E01046E7E7092919D2DFE801F0E5
:102ED00005080E180B1818181A00FEF767F904E019
:102EE000FEF776F901E0FEF785F978B1616800EB4D
:102EF0005100B0FBF1F080B2A0F11001B94203D94A
:102F0000012503E01046F1E72168C86026662846DF
:102F10006666BDE8F081000000800040F369FFEFC5
:102F20000038014000100240004400400024F4003A
:102F3000FFFC0F002DE9F0479A4617460E4604465F
:102F40004FF000094FF02008089D39E0681C37D089
:102F5000FDF70CFDA0EB0A00A84222D80DB32068B3
:102F6000016849072CD5C069C043000528D42168F1
:102F70004FF4006008622068016821F4D07101609C
:102F80002068816821F001018160C4F87480C4F870
:102F90007880C4F87C8000BF84F870900320BDE87E
:102FA000F0872068016821F4D07101602068816891
:102FB00021F001018160C4F87480C4F87880EBE7E7
:102FC0002068C06936EA000004D00020B842BDD0B5
:102FD0000020E4E70120F9E7064910B54870002811
:102FE00001DA00204870C0B200F0F6F9BDE81040E8
:102FF00000F0F2BD5C00002010B50B4C00282070E2
:1030000001DA002020700021084600F0DFFB0120DB
:1030100000F008FC1420FDF7C1FB207800F058FBFD
:10302000BDE8104000F05EBA5C00002010B500F072
:1030300037FA064C207800F04BFB607800F0CCF9B2
:1030400000F050FABDE8104000F0C6BD5C00002062
:10305000FEE700000FB47CB50C0009AD01D0611E85
:1030600000E00021CDE90001064B6A462946089898
:1030700000F03EF8002C02D0009A002111707CBCB8
:103080005DF814FBB73300080FB4084B10B504A962
:1030900002AA039800F02CF8044602A9002000F0D0
:1030A00095F9204610BC5DF814FB0000CD330008F4
:1030B0000907090E002804DB00F1E02080F8001465
:1030C000704700F00F0000F1E02080F8141D7047F9
:1030D00002E008C8121F08C1002AFAD170477047E1
:1030E000002001E001C1121F002AFBD1704700003F
:1030F0002DE9FF4F8DB09B460F460446002606E0A3
:1031000025280BD05A460F999047641C761C2078CE
:103110000028F5D111B0304600F04AB90025A84684
:103120000122984900E0054314F8013F203B02FAD0
:1031300003F00842F7D120782E2817D114F8010F98
:1031400045F004052A280ED06FF02F022078A0F158
:10315000300109290AD808EB880102EB410100EB94
:103160000108641CF2E757F8048B641C20786C2873
:103170000DD004DC4C2812D06A2811D104E0742848
:103180000DD07A280CD10AE045F4001507E06178EB
:1031900045F48015814202D1641C05F58015641C3C
:1031A0002078692844D008DC0028B3D0582867D09C
:1031B00063280FD0642808D13AE0702865D07328BE
:1031C00012D075285AD078285AD05A460F9990476D
:1031D000761CD5E017F8040B8DF8000000208DF860
:1031E0000100E946012003E057F8049B4FF0FF304F
:1031F00069074FF0000501D40AE06D1C45450DDA62
:103200008542FADB19F805100029F6D106E06D1C9D
:103210008542FCDB19F805100029F8D12E4404E0A2
:1032200019F8010B5A460F9990476D1EF8D2A7E086
:103230000A200021CDE90801C5F3025002280CD074
:1032400001CFC117021E71F100020CDA0023D0EB8E
:10325000030063EB01012D2208E0FF1D27F00707A3
:10326000F7E80201EEE72A0504D52B228DF8282085
:1032700001223CE0EA073AD02022F7E70A2000E0EA
:1032800010200021CDE9080107E01020002145F0C1
:103290000405CDE908014FF00808C5F302500228E3
:1032A00010D001CF00214FF0000A2A0720D5227844
:1032B000702A0DD0DDE908C38CF0100C5CEA030C19
:1032C0000CD015E0FF1D27F00707F7E80201EAE739
:1032D00040228DF828204FF0010A0CE050EA01034B
:1032E00006D030238DF828308DF82920022292460E
:1032F0002278582A04D024A20DF120090B9209E06B
:1033000026A2F9E7DDE90823FCF75EFF0B9B9B5C37
:1033100009F8013D50EA0102F4D1ADEB090020307B
:103320000890680701D44FF001080899884503DD2B
:103330000898A8EB000000E000208046002506E089
:103340000AA85A46405D0F9990476D1C761C55455A
:10335000F6DB04E030205A460F999047761CB8F10E
:103360000001A8F10108F5DC05E019F8010B5A4647
:103370000F999047761C0899481E08900029F4DCA4
:10338000641CC4E609280100303132333435363745
:1033900038396162636465660000000030313233A1
:1033A0003435363738394142434445460000000041
:1033B00030BCBDE8C08F4A68002A06D00A68531C9A
:1033C0000B6010704868401E486070470A68531CC4
:1033D0000B601070704700001CB5044600210120EE
:1033E00000F0F4F907A000F03DFA0021012000F000
:1033F000EDF9224606A16846FFF746FE684600F052
:1034000031FA1CBD202020202020202000000000B8
:10341000414D4D4F3A2569002DE9F0410C462DED07
:10342000028BFDF7C2F805460F469FED1B8B204629
:10343000FDF7BBF847EC105B0E46044653EC182B27
:1034400051EC100BFCF7BCFF41EC110B46EC104BA0
:1034500053EC112B51EC100BFDF7D4F804D20020E3
:10346000BDEC028BBDE8F08146EC104B53EC182B01
:1034700051EC100BFCF7A4FF41EC110B47EC105B77
:1034800053EC112B51EC100BFDF7BCF801D20220CC
:10349000E6E70120E4E700009A9999999999E93FB4
:1034A00010B50021044800F03FF903480121BDE8B0
:1034B0001040083800F038B9670000200649074A74
:1034C0000968B1FBF2F141430548002242604268BD
:1034D0008A42FCD3704700007C00002040420F006D
:1034E000001000E0094810B500784FF00C010028EA
:1034F0004FF0000006D000F069F905A0BDE81040CB
:1035000000F0B0B900F062F903A0F7E75C0000201A
:103510002020202000000000444945440000000015
:103520002DE9F0410546B0F91000114E062802DAE7
:103530000020BDE8F081012404270DE0E86807EBD6
:103540004401415A30F81400FFF766FF094900B200
:103550004E434640641C24B2B5F91010A01C8142B1
:10356000ECDC20206E602881002028700120E0E73C
:10357000C59D1C81930100012DE9F0470446C068F8
:103580000026408841F294173946FEF715FF0028BF
:103590001CD0284D68784FF007094FF40C780428A8
:1035A00010D1E06880887910FEF752FF50B1E068D2
:1035B000C0884146FEF700FF20B100202081401E58
:1035C000606033E06878442802D20020BDE8F087CC
:1035D000E068808803253946FEF73AFF0028F5D0D9
:1035E0000027E06830F8150041466D1CFEF7E4FE48
:1035F0000028EBD0E06830F815004FF4C861FEF702
:1036000027FF18B1012000EB460608E0E06830F81B
:1036100015004146FEF71CFF0028D7D076006D1C30
:103620007F1C202FDDDB20202081666084F8009045
:103630000120CBE78C02002070B58EB04FF47A7178
:1036400010FB01F02049B1FBF0F0401E85B20320D1
:10365000B5FBF0F61D48FEF723F900240094019411
:1036600002940394049405941C2107A80694FCF783
:10367000E6FD16484FF08041C0E90014C0E902455C
:1036800004618461FEF73EF94FF480500090694672
:103690000E48FEF797F90D48FEF77CFB049404A949
:1036A0000A480694FEF7C6F86020CDE90864079042
:1036B000002207A905480B94FEF7DDFA0348FEF740
:1036C000B3FA0EB070BD000000A24A042C01002025
:1036D00070B50A21B0FBF1F50021084600F076F83C
:1036E000002000F09FF80121002000F06FF83A2040
:1036F00000F098F80221002000F068F807A000F020
:10370000B1F80221002000F061F8002403E0FF205E
:1037100000F088F8641CAC42F9DB70BD202020204A
:10372000202020202020000070B50546402000EB1E
:10373000C100C0B200F056F80120FDF72FF80024B8
:10374000285D00F06FF8641C082CF9DBBDE87040C0
:10375000AFF3008010B53220FDF720F8302000F0E4
:1037600041F80520FDF71AF8302000F03BF8012061
:10377000FDF714F8302000F035F80A20FDF70EF8B8
:10378000202000F02FF80A20FDF708F8282000F08C
:1037900029F80120FDF702F8082000F023F80120A5
:1037A000FCF7FCFF012000F01DF80120FCF7F6FFFC
:1037B0000120FCF7F3FF062000F014F80120FCF7CD
:1037C000EDFFBDE810400C2000F00CB810B101284E
:1037D00005D102E041F0800101E041F0C001C8B232
:1037E000AFF300801CB500F0F00141F00C028DF841
:1037F000042041F0080100018DF8051040F00C0193
:103800008DF8061040F008008DF807006420009045
:10381000042301AA4E210248FDF75EF91CBD0000F9
:10382000E00000201CB500F0F00141F00D028DF821
:10383000042041F0090100018DF8051040F00D0150
:103840008DF8061040F009008DF807006420009004
:10385000042301AA4E210248FDF73EF91CBD0000D9
:10386000E000002010B5044602E0641CFFF7DAFF18
:1038700020780028F9D110BD1FB5FDF7FDF9FEF73E
:10388000BAFFFEF731FEFEF781FEFEF7C3FEFEF73C
:10389000ABFEFEF759FEFFF75DFFFFF7C7FB00F039
:1038A0005DF9734D734C4FF0000932264FF001085B
:1038B0004FF0FF3794F90100002837DD94F900003C
:1038C000002833DD02214FF09040FDF74AF82179BE
:1038D000884209D0E178491CC9B2E170052905D3B5
:1038E000207108B184F8028084F80390A078E8B1D0
:1038F000207861A2401E207084F802906021604808
:10390000A368FFF7A7FB5E48FCF7A4FC5C4982B202
:103910003B4601F5BC70FEF70FFC2021A06800F0CB
:1039200079F91420FCF73AFF00F018F9504800F03C
:10393000F7F800286DD04F4895F90020143000EBBF
:103940008200B5F908104068CDE900014DA2602160
:103950004B486B68FFF77EFB4948FCF77BFC484906
:1039600082B23B4601F5BC70FEF7E6FB4D49686844
:10397000884202D16420607046E04B49884202D1FF
:103980000520207040E094F9011000293CDDC2437D
:1039900012F0FF0F38D11939030EC0F3074249B2B4
:1039A00003929A46C0F3072B6170002902DA84F86B
:1039B000019000E002D14FF0010101E04FF0000161
:1039C000CDE9002B029139A24FF060012C48FFF79E
:1039D00041FB2B48FCF73EFC294982B23B4601F5EE
:1039E000BC70FEF7A9FB23483B460C30062280F84A
:1039F00002A00399C17080F804B002994171014698
:103A00001F48F830FEF798FB00F0DEF81420FCF7B2
:103A1000C5FEB4F9060090FBF6F106FB1100F8B9FB
:103A200094F90100FFF7E8FA94F90000FFF7D4FADF
:103A300094F9001094F90120CDF80080CDE901211E
:103A4000012323A260210E48FFF704FB0C48FCF77A
:103A500001FC0B4982B23B4601F5BC70FEF76CFBE2
:103A6000E088401CE0800A20FCF798FE22E7000076
:103A700078020020000000205045572025700A00E1
:103A800080000020436F643A202570207C20547908
:103A900070653A202573207C20426974733A202592
:103AA000640A0000B748E0E01FE0E0E07465616D83
:103AB0003A202564207C20706C617965723A20255B
:103AC00064207C2064616D6167653A2025640A008A
:103AD0005465616D3A202564207C506C6179657273
:103AE0003A202564207C4865616C74683A2025641E
:103AF000207C20416D6D6F3A2025640A0000000093
:103B000010B5044600210548FEF794F9002C04D0B6
:103B10002046BDE81040FFF7D1BC10BD2C010020AD
:103B200010B504460C48E060001F4178218290F8EF
:103B3000041261820078052801D0002010BD2046C3
:103B4000FFF71AFD18B92046FFF7EAFC08B101207B
:103B500010BD00F039F8F0E79002002010B588B0F1
:103B6000FCF70AFE1648FDF79BFE0024144800945B
:103B7000019402940394049405944FF080410694B8
:103B800001604721C0E901143121C0E903148461B7
:103B9000FDF7B8FE4FF48050009069460848FDF7E5
:103BA00011FF049404A906480694FDF743FE054856
:103BB0000221017044700248FDF7D8FE08B010BD24
:103BC0002C0100208C0200200248022101700021FB
:103BD000417070478C020020094810B540784FF0C2
:103BE0000A0100284FF0010006D0FFF7EFFD05A005
:103BF000BDE81040FFF736BEFFF7E8FD03A0F7E78A
:103C00005C000020202020202020000052454C4F46
:103C1000414400002DE9F04105460E462620FFF7FD
:103C20000BFD41F294142046FFF76AFF204600F096
:103C30001FF80124761EB4404FF40C764FF4C86789
:103C40000CE02542304603D0FFF75AFF384602E029
:103C5000FFF756FF304600F00BF86408002CF0D157
:103C60003046FFF74DFFBDE8F0410020AFF3008084
:103C700010B5044600210548FEF744F9002C04D095
:103C80002046BDE81040FFF719BC10BD2C010020F4
:103C900000000000000000000102030406070809FC
:103CA000A0860100400D0300801A060000350C00BC
:103CB00040420F0080841E0000093D0000127A007F
:103CC0000024F40000366E010048E801006CDC02BC
:103CD0000000000001020304414957415F52435F65
:103CE0005435303100000000524335005243360055
:103CF0004E45430050414E41534F4E494300000052
:103D00004A564300554E5553454400004C47000069
:103D100053414D53554E470044495348000000005D
:103D20004D495453554249534849000044454E4F6C
:103D30004E000000554E4B4E4F574E0050524F4EC6
:103D4000544F000053414E594F0000005348415218
:103D5000500000005748594E54455200534F4E5999
:103D600000000000843D00080000002080000000EA
:103D7000D0300008043E0008800000201808000031
:103D8000E03000080564000000000000FF19010198
:103D90000101000000000000043D0008343D00085F
:103DA000E83C0008EC3C0008F03C00085C3D0008E2
:103DB000F43C0008003D0008103D0008543D000898
:103DC000D83C00080C3D0008443D0008203D000898
:103DD000183D00084C3D00082C3D00083C3D000803
:103DE000646464000A15110A040000000A1F1F0E13
:103DF00004000000010000001000000000000000AE
:043E000000093D0078
:040000050800018D61
:00000001FF
